{
  "contractName": "LinkedChain",
  "abi": [
    {
      "inputs": [],
      "payable": false,
      "stateMutability": "nonpayable",
      "type": "constructor"
    },
    {
      "anonymous": false,
      "inputs": [
        {
          "indexed": false,
          "internalType": "uint256",
          "name": "id",
          "type": "uint256"
        },
        {
          "indexed": false,
          "internalType": "string",
          "name": "answer",
          "type": "string"
        },
        {
          "indexed": false,
          "internalType": "address payable",
          "name": "author",
          "type": "address"
        }
      ],
      "name": "AnswerCreated",
      "type": "event"
    },
    {
      "anonymous": false,
      "inputs": [
        {
          "indexed": false,
          "internalType": "uint256",
          "name": "id",
          "type": "uint256"
        },
        {
          "indexed": false,
          "internalType": "uint256",
          "name": "tipAmount",
          "type": "uint256"
        },
        {
          "indexed": false,
          "internalType": "address payable",
          "name": "author",
          "type": "address"
        }
      ],
      "name": "AnswerTipped",
      "type": "event"
    },
    {
      "anonymous": false,
      "inputs": [
        {
          "indexed": false,
          "internalType": "uint256",
          "name": "id",
          "type": "uint256"
        },
        {
          "indexed": false,
          "internalType": "string",
          "name": "question",
          "type": "string"
        },
        {
          "indexed": false,
          "internalType": "address payable",
          "name": "author",
          "type": "address"
        }
      ],
      "name": "QuestionCreated",
      "type": "event"
    },
    {
      "constant": true,
      "inputs": [],
      "name": "name",
      "outputs": [
        {
          "internalType": "string",
          "name": "",
          "type": "string"
        }
      ],
      "payable": false,
      "stateMutability": "view",
      "type": "function"
    },
    {
      "constant": true,
      "inputs": [],
      "name": "postCount",
      "outputs": [
        {
          "internalType": "uint256",
          "name": "",
          "type": "uint256"
        }
      ],
      "payable": false,
      "stateMutability": "view",
      "type": "function"
    },
    {
      "constant": true,
      "inputs": [
        {
          "internalType": "uint256",
          "name": "",
          "type": "uint256"
        }
      ],
      "name": "questions",
      "outputs": [
        {
          "internalType": "uint256",
          "name": "id",
          "type": "uint256"
        },
        {
          "internalType": "string",
          "name": "question",
          "type": "string"
        },
        {
          "internalType": "uint256",
          "name": "ansCount",
          "type": "uint256"
        },
        {
          "internalType": "address payable",
          "name": "author",
          "type": "address"
        }
      ],
      "payable": false,
      "stateMutability": "view",
      "type": "function"
    },
    {
      "constant": false,
      "inputs": [
        {
          "internalType": "string",
          "name": "_question",
          "type": "string"
        }
      ],
      "name": "createQuestion",
      "outputs": [],
      "payable": false,
      "stateMutability": "nonpayable",
      "type": "function"
    },
    {
      "constant": false,
      "inputs": [
        {
          "internalType": "uint256",
          "name": "_id",
          "type": "uint256"
        },
        {
          "internalType": "string",
          "name": "_answer",
          "type": "string"
        }
      ],
      "name": "createAnswer",
      "outputs": [],
      "payable": false,
      "stateMutability": "nonpayable",
      "type": "function"
    },
    {
      "constant": false,
      "inputs": [
        {
          "internalType": "uint256",
          "name": "_q",
          "type": "uint256"
        },
        {
          "internalType": "uint256",
          "name": "_id",
          "type": "uint256"
        }
      ],
      "name": "tipAnswer",
      "outputs": [],
      "payable": true,
      "stateMutability": "payable",
      "type": "function"
    },
    {
      "constant": true,
      "inputs": [
        {
          "internalType": "uint256",
          "name": "_q",
          "type": "uint256"
        },
        {
          "internalType": "uint256",
          "name": "_id",
          "type": "uint256"
        }
      ],
      "name": "getAnswer",
      "outputs": [
        {
          "internalType": "uint256",
          "name": "",
          "type": "uint256"
        },
        {
          "internalType": "string",
          "name": "",
          "type": "string"
        },
        {
          "internalType": "uint256",
          "name": "",
          "type": "uint256"
        },
        {
          "internalType": "address",
          "name": "",
          "type": "address"
        }
      ],
      "payable": false,
      "stateMutability": "view",
      "type": "function"
    }
  ],
  "bytecode": "0x608060405234801561001057600080fd5b506040518060400160405280600b81526020017f4c696e6b6564436861696e0000000000000000000000000000000000000000008152506000908051906020019061005c929190610062565b50610107565b828054600181600116156101000203166002900490600052602060002090601f016020900481019282601f106100a357805160ff19168380011785556100d1565b828001600101855582156100d1579182015b828111156100d05782518255916020019190600101906100b5565b5b5090506100de91906100e2565b5090565b61010491905b808211156101005760008160009055506001016100e8565b5090565b90565b610fc5806101166000396000f3fe6080604052600436106100705760003560e01c80634fec390c1161004e5780634fec390c1461022557806378528511146102f7578063a22c1bc91461032f578063b3580c1e1461042e57610070565b806306fdde031461007557806317906c2e1461010557806331b1b97814610130575b600080fd5b34801561008157600080fd5b5061008a6104f6565b6040518080602001828103825283818151815260200191508051906020019080838360005b838110156100ca5780820151818401526020810190506100af565b50505050905090810190601f1680156100f75780820380516001836020036101000a031916815260200191505b509250505060405180910390f35b34801561011157600080fd5b5061011a610594565b6040518082815260200191505060405180910390f35b34801561013c57600080fd5b506101696004803603602081101561015357600080fd5b810190808035906020019092919050505061059a565b60405180858152602001806020018481526020018373ffffffffffffffffffffffffffffffffffffffff1673ffffffffffffffffffffffffffffffffffffffff168152602001828103825285818151815260200191508051906020019080838360005b838110156101e75780820151818401526020810190506101cc565b50505050905090810190601f1680156102145780820380516001836020036101000a031916815260200191505b509550505050505060405180910390f35b34801561023157600080fd5b506102f56004803603604081101561024857600080fd5b81019080803590602001909291908035906020019064010000000081111561026f57600080fd5b82018360208201111561028157600080fd5b803590602001918460018302840111640100000000831117156102a357600080fd5b91908080601f016020809104026020016040519081016040528093929190818152602001838380828437600081840152601f19601f820116905080830192505050505050509192919290505050610682565b005b61032d6004803603604081101561030d57600080fd5b810190808035906020019092919080359060200190929190505050610886565b005b34801561033b57600080fd5b506103726004803603604081101561035257600080fd5b810190808035906020019092919080359060200190929190505050610b6b565b60405180858152602001806020018481526020018373ffffffffffffffffffffffffffffffffffffffff1673ffffffffffffffffffffffffffffffffffffffff168152602001828103825285818151815260200191508051906020019080838360005b838110156103f05780820151818401526020810190506103d5565b50505050905090810190601f16801561041d5780820380516001836020036101000a031916815260200191505b509550505050505060405180910390f35b34801561043a57600080fd5b506104f46004803603602081101561045157600080fd5b810190808035906020019064010000000081111561046e57600080fd5b82018360208201111561048057600080fd5b803590602001918460018302840111640100000000831117156104a257600080fd5b91908080601f016020809104026020016040519081016040528093929190818152602001838380828437600081840152601f19601f820116905080830192505050505050509192919290505050610ce6565b005b60008054600181600116156101000203166002900480601f01602080910402602001604051908101604052809291908181526020018280546001816001161561010002031660029004801561058c5780601f106105615761010080835404028352916020019161058c565b820191906000526020600020905b81548152906001019060200180831161056f57829003601f168201915b505050505081565b60015481565b6002602052806000526040600020600091509050806000015490806001018054600181600116156101000203166002900480601f01602080910402602001604051908101604052809291908181526020018280546001816001161561010002031660029004801561064c5780601f106106215761010080835404028352916020019161064c565b820191906000526020600020905b81548152906001019060200180831161062f57829003601f168201915b5050505050908060020154908060040160009054906101000a900473ffffffffffffffffffffffffffffffffffffffff16905084565b600081511161069057600080fd5b600260008381526020019081526020016000206002016000815480929190600101919050555060405180608001604052806001548152602001828152602001600081526020013373ffffffffffffffffffffffffffffffffffffffff1681525060026000848152602001908152602001600020600301600060026000868152602001908152602001600020600201548152602001908152602001600020600082015181600001556020820151816001019080519060200190610753929190610ead565b506040820151816002015560608201518160030160006101000a81548173ffffffffffffffffffffffffffffffffffffffff021916908373ffffffffffffffffffffffffffffffffffffffff1602179055509050507f6796a1bde84f43d29cfbb992a27f9497318980a6a70fa80181987382193b7465600154823360405180848152602001806020018373ffffffffffffffffffffffffffffffffffffffff1673ffffffffffffffffffffffffffffffffffffffff168152602001828103825284818151815260200191508051906020019080838360005b8381101561084657808201518184015260208101905061082b565b50505050905090810190601f1680156108735780820380516001836020036101000a031916815260200191505b5094505050505060405180910390a15050565b60008111801561089857506001548111155b6108a157600080fd5b6108a9610f2d565b60026000848152602001908152602001600020600301600083815260200190815260200160002060405180608001604052908160008201548152602001600182018054600181600116156101000203166002900480601f01602080910402602001604051908101604052809291908181526020018280546001816001161561010002031660029004801561097e5780601f106109535761010080835404028352916020019161097e565b820191906000526020600020905b81548152906001019060200180831161096157829003601f168201915b50505050508152602001600282015481526020016003820160009054906101000a900473ffffffffffffffffffffffffffffffffffffffff1673ffffffffffffffffffffffffffffffffffffffff1673ffffffffffffffffffffffffffffffffffffffff168152505090506000816060015190508073ffffffffffffffffffffffffffffffffffffffff166108fc349081150290604051600060405180830381858888f19350505050158015610a38573d6000803e3d6000fd5b503482604001510182604001818152505081600260008681526020019081526020016000206003016000858152602001908152602001600020600082015181600001556020820151816001019080519060200190610a97929190610ead565b506040820151816002015560608201518160030160006101000a81548173ffffffffffffffffffffffffffffffffffffffff021916908373ffffffffffffffffffffffffffffffffffffffff1602179055509050507f5b3e175b1d9c60d3436c23a08b3ee3b0a6fc42b286c3b10e698fcc978131e85e600154836040015183604051808481526020018381526020018273ffffffffffffffffffffffffffffffffffffffff1673ffffffffffffffffffffffffffffffffffffffff168152602001935050505060405180910390a150505050565b60006060600080610b7a610f2d565b60026000888152602001908152602001600020600301600087815260200190815260200160002060405180608001604052908160008201548152602001600182018054600181600116156101000203166002900480601f016020809104026020016040519081016040528092919081815260200182805460018160011615610100020316600290048015610c4f5780601f10610c2457610100808354040283529160200191610c4f565b820191906000526020600020905b815481529060010190602001808311610c3257829003601f168201915b50505050508152602001600282015481526020016003820160009054906101000a900473ffffffffffffffffffffffffffffffffffffffff1673ffffffffffffffffffffffffffffffffffffffff1673ffffffffffffffffffffffffffffffffffffffff16815250509050806000015181602001518260400151836060015182925080905094509450945094505092959194509250565b6000815111610cf457600080fd5b60016000815480929190600101919050555060405180608001604052806001548152602001828152602001600081526020013373ffffffffffffffffffffffffffffffffffffffff16815250600260006001548152602001908152602001600020600082015181600001556020820151816001019080519060200190610d7b929190610ead565b506040820151816002015560608201518160040160006101000a81548173ffffffffffffffffffffffffffffffffffffffff021916908373ffffffffffffffffffffffffffffffffffffffff1602179055509050507f836918f73ece4b385b9f5b63baf209fe66adbc2790e9e5522a8b4bc1cbab643c600154823360405180848152602001806020018373ffffffffffffffffffffffffffffffffffffffff1673ffffffffffffffffffffffffffffffffffffffff168152602001828103825284818151815260200191508051906020019080838360005b83811015610e6e578082015181840152602081019050610e53565b50505050905090810190601f168015610e9b5780820380516001836020036101000a031916815260200191505b5094505050505060405180910390a150565b828054600181600116156101000203166002900490600052602060002090601f016020900481019282601f10610eee57805160ff1916838001178555610f1c565b82800160010185558215610f1c579182015b82811115610f1b578251825591602001919060010190610f00565b5b509050610f299190610f6b565b5090565b6040518060800160405280600081526020016060815260200160008152602001600073ffffffffffffffffffffffffffffffffffffffff1681525090565b610f8d91905b80821115610f89576000816000905550600101610f71565b5090565b9056fea265627a7a72315820a6f721adbf26642cd57dcef4b635ac6339349673a0e9f5ee369d4d9f8223ba8764736f6c63430005100032",
  "source": "pragma solidity ^0.5.0;\n\ncontract LinkedChain {\n    string public name;\n    uint public postCount;\n    mapping(uint => Question) public questions;\n\n    struct Question {\n        uint id;\n        string question;\n        uint ansCount;\n        mapping(uint => Answer) answers;\n        address payable author;\n    }\n\n    struct Answer {\n        uint id;\n        string answer;\n        uint tipAmount;\n        address payable author;\n    }\n\n    event QuestionCreated(\n        uint id,\n        string question,\n        address payable author\n    );\n\n    event AnswerCreated(\n        uint id,\n        string answer,\n        address payable author\n    );\n\n    event AnswerTipped(\n        uint id,\n        uint tipAmount,\n        address payable author\n    );\n\n    constructor() public {\n        name = \"LinkedChain\";\n    }\n\n    function createQuestion(string memory _question) public {\n        require(bytes(_question).length > 0);\n        postCount ++;\n        questions[postCount] = Question(postCount, _question, 0, msg.sender);\n        emit QuestionCreated(postCount, _question, msg.sender);\n    }\n\n    function createAnswer(uint _id, string memory _answer) public {\n        require(bytes(_answer).length > 0);\n        questions[_id].ansCount++;\n        questions[_id].answers[questions[_id].ansCount] = Answer(postCount, _answer, 0, msg.sender);\n        emit AnswerCreated(postCount, _answer, msg.sender);\n    }\n\n    function tipAnswer(uint _q, uint _id) public payable {\n        require(_id > 0 && _id <= postCount);\n        Answer memory _answer = questions[_q].answers[_id];\n        address payable _author = _answer.author;\n        address(_author).transfer(msg.value);\n        _answer.tipAmount = _answer.tipAmount + msg.value;\n        questions[_q].answers[_id] = _answer;\n        emit AnswerTipped(postCount, _answer.tipAmount, _author);\n    }\n\n    function getAnswer(uint _q, uint _id) public view returns(uint, string memory, uint, address) {\n        Answer memory _answer = questions[_q].answers[_id];\n        return (_answer.id, _answer.answer, _answer.tipAmount, _answer.author);\n    }\n\n\n\n}\n",
  "sourcePath": "/home/ankit/Documents/Smart Contracts/linked-chain/src/contracts/LinkedChain.sol",
  "compiler": {
    "name": "solc",
    "version": "0.5.16+commit.9c3226ce.Emscripten.clang"
  },
  "schemaVersion": "3.0.23",
  "updatedAt": "2020-02-15T02:35:55.300Z",
  "networkType": "ethereum",
  "devdoc": {
    "methods": {}
  },
  "userdoc": {
    "methods": {}
  }
}